{
  "_format": "hh-sol-artifact-1",
  "contractName": "Tracking",
  "sourceName": "contracts/Tracking.sol",
  "abi": [
    {
      "inputs": [],
      "stateMutability": "nonpayable",
      "type": "constructor"
    },
    {
      "anonymous": false,
      "inputs": [
        {
          "indexed": true,
          "internalType": "address",
          "name": "sender",
          "type": "address"
        },
        {
          "indexed": true,
          "internalType": "address",
          "name": "receiver",
          "type": "address"
        },
        {
          "indexed": false,
          "internalType": "uint256",
          "name": "pickupTime",
          "type": "uint256"
        },
        {
          "indexed": false,
          "internalType": "uint256",
          "name": "distance",
          "type": "uint256"
        },
        {
          "indexed": false,
          "internalType": "uint256",
          "name": "price",
          "type": "uint256"
        }
      ],
      "name": "ShipmentCreated",
      "type": "event"
    },
    {
      "anonymous": false,
      "inputs": [
        {
          "indexed": true,
          "internalType": "address",
          "name": "sender",
          "type": "address"
        },
        {
          "indexed": true,
          "internalType": "address",
          "name": "receiver",
          "type": "address"
        },
        {
          "indexed": false,
          "internalType": "uint256",
          "name": "deliveryTime",
          "type": "uint256"
        }
      ],
      "name": "ShipmentDelivered",
      "type": "event"
    },
    {
      "anonymous": false,
      "inputs": [
        {
          "indexed": true,
          "internalType": "address",
          "name": "sender",
          "type": "address"
        },
        {
          "indexed": true,
          "internalType": "address",
          "name": "receiver",
          "type": "address"
        },
        {
          "indexed": false,
          "internalType": "uint256",
          "name": "pickupTime",
          "type": "uint256"
        },
        {
          "indexed": false,
          "internalType": "uint256",
          "name": "distance",
          "type": "uint256"
        },
        {
          "indexed": false,
          "internalType": "uint256",
          "name": "price",
          "type": "uint256"
        }
      ],
      "name": "ShipmentInTransit",
      "type": "event"
    },
    {
      "anonymous": false,
      "inputs": [
        {
          "indexed": true,
          "internalType": "address",
          "name": "sender",
          "type": "address"
        },
        {
          "indexed": true,
          "internalType": "address",
          "name": "receiver",
          "type": "address"
        },
        {
          "indexed": false,
          "internalType": "uint256",
          "name": "amount",
          "type": "uint256"
        }
      ],
      "name": "Shipmentpaid",
      "type": "event"
    },
    {
      "inputs": [
        {
          "internalType": "address",
          "name": "_recever",
          "type": "address"
        },
        {
          "internalType": "uint256",
          "name": "_pickupTime",
          "type": "uint256"
        },
        {
          "internalType": "uint256",
          "name": "_distance",
          "type": "uint256"
        },
        {
          "internalType": "uint256",
          "name": "_price",
          "type": "uint256"
        }
      ],
      "name": "CreateShimpent",
      "outputs": [],
      "stateMutability": "payable",
      "type": "function"
    },
    {
      "inputs": [
        {
          "internalType": "address",
          "name": "_sender",
          "type": "address"
        },
        {
          "internalType": "address",
          "name": "_receiver",
          "type": "address"
        },
        {
          "internalType": "uint256",
          "name": "_index",
          "type": "uint256"
        }
      ],
      "name": "completeShipment",
      "outputs": [],
      "stateMutability": "nonpayable",
      "type": "function"
    },
    {
      "inputs": [],
      "name": "getAllTransactions",
      "outputs": [
        {
          "components": [
            {
              "internalType": "address",
              "name": "sender",
              "type": "address"
            },
            {
              "internalType": "address",
              "name": "receiver",
              "type": "address"
            },
            {
              "internalType": "uint256",
              "name": "pickupTime",
              "type": "uint256"
            },
            {
              "internalType": "uint256",
              "name": "deliveryTime",
              "type": "uint256"
            },
            {
              "internalType": "uint256",
              "name": "distance",
              "type": "uint256"
            },
            {
              "internalType": "uint256",
              "name": "price",
              "type": "uint256"
            },
            {
              "internalType": "enum Tracking.ShipmentStatus",
              "name": "status",
              "type": "uint8"
            },
            {
              "internalType": "bool",
              "name": "isPaid",
              "type": "bool"
            }
          ],
          "internalType": "struct Tracking.TypeShipment[]",
          "name": "",
          "type": "tuple[]"
        }
      ],
      "stateMutability": "view",
      "type": "function"
    },
    {
      "inputs": [
        {
          "internalType": "address",
          "name": "_sender",
          "type": "address"
        },
        {
          "internalType": "uint256",
          "name": "_index",
          "type": "uint256"
        }
      ],
      "name": "getShipment",
      "outputs": [
        {
          "internalType": "address",
          "name": "",
          "type": "address"
        },
        {
          "internalType": "address",
          "name": "",
          "type": "address"
        },
        {
          "internalType": "uint256",
          "name": "",
          "type": "uint256"
        },
        {
          "internalType": "uint256",
          "name": "",
          "type": "uint256"
        },
        {
          "internalType": "uint256",
          "name": "",
          "type": "uint256"
        },
        {
          "internalType": "uint256",
          "name": "",
          "type": "uint256"
        },
        {
          "internalType": "enum Tracking.ShipmentStatus",
          "name": "",
          "type": "uint8"
        },
        {
          "internalType": "bool",
          "name": "",
          "type": "bool"
        }
      ],
      "stateMutability": "view",
      "type": "function"
    },
    {
      "inputs": [
        {
          "internalType": "address",
          "name": "_sender",
          "type": "address"
        }
      ],
      "name": "getShipmentCount",
      "outputs": [
        {
          "internalType": "uint256",
          "name": "",
          "type": "uint256"
        }
      ],
      "stateMutability": "view",
      "type": "function"
    },
    {
      "inputs": [],
      "name": "shipmentCount",
      "outputs": [
        {
          "internalType": "uint256",
          "name": "",
          "type": "uint256"
        }
      ],
      "stateMutability": "view",
      "type": "function"
    },
    {
      "inputs": [
        {
          "internalType": "address",
          "name": "",
          "type": "address"
        },
        {
          "internalType": "uint256",
          "name": "",
          "type": "uint256"
        }
      ],
      "name": "shipments",
      "outputs": [
        {
          "internalType": "address",
          "name": "sender",
          "type": "address"
        },
        {
          "internalType": "address",
          "name": "receiver",
          "type": "address"
        },
        {
          "internalType": "uint256",
          "name": "pickupTime",
          "type": "uint256"
        },
        {
          "internalType": "uint256",
          "name": "deliveryTime",
          "type": "uint256"
        },
        {
          "internalType": "uint256",
          "name": "distance",
          "type": "uint256"
        },
        {
          "internalType": "uint256",
          "name": "price",
          "type": "uint256"
        },
        {
          "internalType": "enum Tracking.ShipmentStatus",
          "name": "status",
          "type": "uint8"
        },
        {
          "internalType": "bool",
          "name": "isPaid",
          "type": "bool"
        }
      ],
      "stateMutability": "view",
      "type": "function"
    },
    {
      "inputs": [
        {
          "internalType": "address",
          "name": "_sender",
          "type": "address"
        },
        {
          "internalType": "address",
          "name": "_receiver",
          "type": "address"
        },
        {
          "internalType": "uint256",
          "name": "_index",
          "type": "uint256"
        }
      ],
      "name": "startShiment",
      "outputs": [],
      "stateMutability": "nonpayable",
      "type": "function"
    }
  ],
  "bytecode": "0x6080604052348015600f57600080fd5b506000600181905550611a50806100276000396000f3fe60806040526004361061007b5760003560e01c80638365da541161004e5780638365da54146101415780638f12382c14610185578063aace20b7146101a1578063b7dfd93d146101cc5761007b565b8063179a878c1461008057806327506f53146100a95780635667e02f146100d45780636fa00c3014610118575b600080fd5b34801561008c57600080fd5b506100a760048036038101906100a2919061125e565b610209565b005b3480156100b557600080fd5b506100be6105dd565b6040516100cb91906114b3565b60405180910390f35b3480156100e057600080fd5b506100fb60048036038101906100f691906114d5565b610767565b60405161010f989796959493929190611551565b60405180910390f35b34801561012457600080fd5b5061013f600480360381019061013a919061125e565b610826565b005b34801561014d57600080fd5b50610168600480360381019061016391906114d5565b610a8e565b60405161017c989796959493929190611551565b60405180910390f35b61019f600480360381019061019a91906115cf565b610c78565b005b3480156101ad57600080fd5b506101b66110ef565b6040516101c39190611636565b60405180910390f35b3480156101d857600080fd5b506101f360048036038101906101ee9190611651565b6110f5565b6040516102009190611636565b60405180910390f35b60008060008573ffffffffffffffffffffffffffffffffffffffff1673ffffffffffffffffffffffffffffffffffffffff168152602001908152602001600020828154811061025b5761025a61167e565b5b906000526020600020906007020190506000600283815481106102815761028061167e565b5b906000526020600020906007020190508373ffffffffffffffffffffffffffffffffffffffff168260010160009054906101000a900473ffffffffffffffffffffffffffffffffffffffff1673ffffffffffffffffffffffffffffffffffffffff1614610323576040517f08c379a000000000000000000000000000000000000000000000000000000000815260040161031a9061170a565b60405180910390fd5b60016002811115610337576103366112fb565b5b8260060160009054906101000a900460ff16600281111561035b5761035a6112fb565b5b1461039b576040517f08c379a000000000000000000000000000000000000000000000000000000000815260040161039290611776565b60405180910390fd5b8160060160019054906101000a900460ff16156103ed576040517f08c379a00000000000000000000000000000000000000000000000000000000081526004016103e4906117e2565b60405180910390fd5b60028260060160006101000a81548160ff02191690836002811115610415576104146112fb565b5b021790555060028160060160006101000a81548160ff02191690836002811115610442576104416112fb565b5b021790555042826003018190555042816003018190555060018260060160016101000a81548160ff0219169083151502179055506000826005015490508260000160009054906101000a900473ffffffffffffffffffffffffffffffffffffffff1673ffffffffffffffffffffffffffffffffffffffff166108fc829081150290604051600060405180830381858888f193505050501580156104e9573d6000803e3d6000fd5b5060018260060160016101000a81548160ff0219169083151502179055508473ffffffffffffffffffffffffffffffffffffffff168673ffffffffffffffffffffffffffffffffffffffff167f3746ccceb54f44c9b0ee0120e596168d07ec9f6ca303cfdd9810d3b2e2686a2e85600301546040516105689190611636565b60405180910390a38473ffffffffffffffffffffffffffffffffffffffff168673ffffffffffffffffffffffffffffffffffffffff167f0fb69ef84ac509be7da9a6f3b42fd923475a307e4b16eec491f7af9ef5bd6f6f836040516105cd9190611636565b60405180910390a3505050505050565b60606002805480602002602001604051908101604052809291908181526020016000905b8282101561075e5783829060005260206000209060070201604051806101000160405290816000820160009054906101000a900473ffffffffffffffffffffffffffffffffffffffff1673ffffffffffffffffffffffffffffffffffffffff1673ffffffffffffffffffffffffffffffffffffffff1681526020016001820160009054906101000a900473ffffffffffffffffffffffffffffffffffffffff1673ffffffffffffffffffffffffffffffffffffffff1673ffffffffffffffffffffffffffffffffffffffff168152602001600282015481526020016003820154815260200160048201548152602001600582015481526020016006820160009054906101000a900460ff16600281111561071e5761071d6112fb565b5b60028111156107305761072f6112fb565b5b81526020016006820160019054906101000a900460ff16151515158152505081526020019060010190610601565b50505050905090565b6000602052816000526040600020818154811061078357600080fd5b9060005260206000209060070201600091509150508060000160009054906101000a900473ffffffffffffffffffffffffffffffffffffffff16908060010160009054906101000a900473ffffffffffffffffffffffffffffffffffffffff16908060020154908060030154908060040154908060050154908060060160009054906101000a900460ff16908060060160019054906101000a900460ff16905088565b60008060008573ffffffffffffffffffffffffffffffffffffffff1673ffffffffffffffffffffffffffffffffffffffff16815260200190815260200160002082815481106108785761087761167e565b5b9060005260206000209060070201905060006002838154811061089e5761089d61167e565b5b906000526020600020906007020190508373ffffffffffffffffffffffffffffffffffffffff168260010160009054906101000a900473ffffffffffffffffffffffffffffffffffffffff1673ffffffffffffffffffffffffffffffffffffffff1614610940576040517f08c379a00000000000000000000000000000000000000000000000000000000081526004016109379061184e565b60405180910390fd5b60006002811115610954576109536112fb565b5b8260060160009054906101000a900460ff166002811115610978576109776112fb565b5b146109b8576040517f08c379a00000000000000000000000000000000000000000000000000000000081526004016109af906118ba565b60405180910390fd5b60018260060160006101000a81548160ff021916908360028111156109e0576109df6112fb565b5b021790555060018160060160006101000a81548160ff02191690836002811115610a0d57610a0c6112fb565b5b02179055508373ffffffffffffffffffffffffffffffffffffffff168573ffffffffffffffffffffffffffffffffffffffff167f36aea6f6d47122468840e58436e7a07f014e071d8d2306853db209cbe9e95ea4846002015485600401548660050154604051610a7f939291906118da565b60405180910390a35050505050565b60008060008060008060008060008060008c73ffffffffffffffffffffffffffffffffffffffff1673ffffffffffffffffffffffffffffffffffffffff1681526020019081526020016000208a81548110610aec57610aeb61167e565b5b9060005260206000209060070201604051806101000160405290816000820160009054906101000a900473ffffffffffffffffffffffffffffffffffffffff1673ffffffffffffffffffffffffffffffffffffffff1673ffffffffffffffffffffffffffffffffffffffff1681526020016001820160009054906101000a900473ffffffffffffffffffffffffffffffffffffffff1673ffffffffffffffffffffffffffffffffffffffff1673ffffffffffffffffffffffffffffffffffffffff168152602001600282015481526020016003820154815260200160048201548152602001600582015481526020016006820160009054906101000a900460ff166002811115610bff57610bfe6112fb565b5b6002811115610c1157610c106112fb565b5b81526020016006820160019054906101000a900460ff161515151581525050905080600001518160200151826040015183606001518460a0015185608001518660c001518760e0015198509850985098509850985098509850509295985092959890939650565b803414610cba576040517f08c379a0000000000000000000000000000000000000000000000000000000008152600401610cb190611983565b60405180910390fd5b60006040518061010001604052803373ffffffffffffffffffffffffffffffffffffffff1681526020018673ffffffffffffffffffffffffffffffffffffffff1681526020018581526020016000815260200184815260200183815260200160006002811115610d2d57610d2c6112fb565b5b81526020016000151581525090506000803373ffffffffffffffffffffffffffffffffffffffff1673ffffffffffffffffffffffffffffffffffffffff16815260200190815260200160002081908060018154018082558091505060019003906000526020600020906007020160009091909190915060008201518160000160006101000a81548173ffffffffffffffffffffffffffffffffffffffff021916908373ffffffffffffffffffffffffffffffffffffffff16021790555060208201518160010160006101000a81548173ffffffffffffffffffffffffffffffffffffffff021916908373ffffffffffffffffffffffffffffffffffffffff16021790555060408201518160020155606082015181600301556080820151816004015560a0820151816005015560c08201518160060160006101000a81548160ff02191690836002811115610e8457610e836112fb565b5b021790555060e08201518160060160016101000a81548160ff021916908315150217905550505060016000815480929190610ebe906119d2565b9190505550610ecb611140565b6040518061010001604052803373ffffffffffffffffffffffffffffffffffffffff1681526020018773ffffffffffffffffffffffffffffffffffffffff1681526020018681526020016000815260200185815260200184815260200160006002811115610f3c57610f3b6112fb565b5b8152602001600015158152509050600281908060018154018082558091505060019003906000526020600020906007020160009091909190915060008201518160000160006101000a81548173ffffffffffffffffffffffffffffffffffffffff021916908373ffffffffffffffffffffffffffffffffffffffff16021790555060208201518160010160006101000a81548173ffffffffffffffffffffffffffffffffffffffff021916908373ffffffffffffffffffffffffffffffffffffffff16021790555060408201518160020155606082015181600301556080820151816004015560a0820151816005015560c08201518160060160006101000a81548160ff02191690836002811115611057576110566112fb565b5b021790555060e08201518160060160016101000a81548160ff02191690831515021790555050508573ffffffffffffffffffffffffffffffffffffffff163373ffffffffffffffffffffffffffffffffffffffff167f5001b34ecf2db5b7bbeddcbbe761ec9ecadcc7638018b98ce3e24995b0e946b68787876040516110df939291906118da565b60405180910390a3505050505050565b60015481565b60008060008373ffffffffffffffffffffffffffffffffffffffff1673ffffffffffffffffffffffffffffffffffffffff168152602001908152602001600020805490509050919050565b604051806101000160405280600073ffffffffffffffffffffffffffffffffffffffff168152602001600073ffffffffffffffffffffffffffffffffffffffff16815260200160008152602001600081526020016000815260200160008152602001600060028111156111b6576111b56112fb565b5b81526020016000151581525090565b600080fd5b600073ffffffffffffffffffffffffffffffffffffffff82169050919050565b60006111f5826111ca565b9050919050565b611205816111ea565b811461121057600080fd5b50565b600081359050611222816111fc565b92915050565b6000819050919050565b61123b81611228565b811461124657600080fd5b50565b60008135905061125881611232565b92915050565b600080600060608486031215611277576112766111c5565b5b600061128586828701611213565b935050602061129686828701611213565b92505060406112a786828701611249565b9150509250925092565b600081519050919050565b600082825260208201905092915050565b6000819050602082019050919050565b6112e6816111ea565b82525050565b6112f581611228565b82525050565b7f4e487b7100000000000000000000000000000000000000000000000000000000600052602160045260246000fd5b6003811061133b5761133a6112fb565b5b50565b600081905061134c8261132a565b919050565b600061135c8261133e565b9050919050565b61136c81611351565b82525050565b60008115159050919050565b61138781611372565b82525050565b610100820160008201516113a460008501826112dd565b5060208201516113b760208501826112dd565b5060408201516113ca60408501826112ec565b5060608201516113dd60608501826112ec565b5060808201516113f060808501826112ec565b5060a082015161140360a08501826112ec565b5060c082015161141660c0850182611363565b5060e082015161142960e085018261137e565b50505050565b600061143b838361138d565b6101008301905092915050565b6000602082019050919050565b6000611460826112b1565b61146a81856112bc565b9350611475836112cd565b8060005b838110156114a657815161148d888261142f565b975061149883611448565b925050600181019050611479565b5085935050505092915050565b600060208201905081810360008301526114cd8184611455565b905092915050565b600080604083850312156114ec576114eb6111c5565b5b60006114fa85828601611213565b925050602061150b85828601611249565b9150509250929050565b61151e816111ea565b82525050565b61152d81611228565b82525050565b61153c81611351565b82525050565b61154b81611372565b82525050565b600061010082019050611567600083018b611515565b611574602083018a611515565b6115816040830189611524565b61158e6060830188611524565b61159b6080830187611524565b6115a860a0830186611524565b6115b560c0830185611533565b6115c260e0830184611542565b9998505050505050505050565b600080600080608085870312156115e9576115e86111c5565b5b60006115f787828801611213565b945050602061160887828801611249565b935050604061161987828801611249565b925050606061162a87828801611249565b91505092959194509250565b600060208201905061164b6000830184611524565b92915050565b600060208284031215611667576116666111c5565b5b600061167584828501611213565b91505092915050565b7f4e487b7100000000000000000000000000000000000000000000000000000000600052603260045260246000fd5b600082825260208201905092915050565b7f7265636569766572206e6f742076616c69736500000000000000000000000000600082015250565b60006116f46013836116ad565b91506116ff826116be565b602082019050919050565b60006020820190508181036000830152611723816116e7565b9050919050565b7f616c72656164792064656c766572656400000000000000000000000000000000600082015250565b60006117606010836116ad565b915061176b8261172a565b602082019050919050565b6000602082019050818103600083015261178f81611753565b9050919050565b7f7373686970656d656e7420616c72656164792070616964000000000000000000600082015250565b60006117cc6017836116ad565b91506117d782611796565b602082019050919050565b600060208201905081810360008301526117fb816117bf565b9050919050565b7f696e76616c696420726563656976657200000000000000000000000000000000600082015250565b60006118386010836116ad565b915061184382611802565b602082019050919050565b600060208201905081810360008301526118678161182b565b9050919050565b7f736869706d656e7420616c726561647920696e207472616e7369740000000000600082015250565b60006118a4601b836116ad565b91506118af8261186e565b602082019050919050565b600060208201905081810360008301526118d381611897565b9050919050565b60006060820190506118ef6000830186611524565b6118fc6020830185611524565b6119096040830184611524565b949350505050565b7f70616d656e7420616d6f756e74206d757374206d75636820746865207072696360008201527f6500000000000000000000000000000000000000000000000000000000000000602082015250565b600061196d6021836116ad565b915061197882611911565b604082019050919050565b6000602082019050818103600083015261199c81611960565b9050919050565b7f4e487b7100000000000000000000000000000000000000000000000000000000600052601160045260246000fd5b60006119dd82611228565b91507fffffffffffffffffffffffffffffffffffffffffffffffffffffffffffffffff8203611a0f57611a0e6119a3565b5b60018201905091905056fea2646970667358221220c7e0193eeeea2bd9fe2a3491e5279a2401f7eec54f066d1c40765fa59a31fd1464736f6c634300081c0033",
  "linkReferences": {},
  "deployedLinkReferences": {}
}